:020000040800F2
:10000000202600203D100008BD0A0008BF0A000895
:10001000C30A0008C70A0008CB0A00080000000055
:10002000000000000000000000000000CF0A0008EF
:10003000D10A000800000000D30A0008D50A000811
:1000400057100008571000085710000857100008F4
:1000500057100008571000085710000857100008E4
:1000600057100008571000085710000857100008D4
:1000700057100008571000085710000857100008C4
:1000800057100008571000085710000857100008B4
:1000900057100008571000085710000857100008A4
:1000A0005710000857100008571000085710000894
:1000B0005710000857100008571000085710000884
:1000C0005710000857100008571000085710000874
:1000D000571000081B0F00085710000857100008A1
:1000E0005710000857100008571000085710000854
:1000F0005710000857100008571000085710000844
:100100005710000857100008571000085710000833
:100110005710000857100008571000085710000823
:100120005710000857100008571000085710000813
:1001300000F002F800F03AF80AA090E8000C8244BF
:100140008344AAF10107DA4501D100F02FF8AFF29C
:10015000090EBAE80F0013F0010F18BFFB1A43F0A5
:1001600001031847941E0000B41E0000103A24BF7B
:1001700078C878C1FAD8520724BF30C830C144BF0C
:1001800004680C607047000000230024002500264E
:10019000103A28BF78C1FBD8520728BF30C148BFEA
:1001A0000B6070471FB51FBD10B510BD01F05DFDA0
:1001B0001146FFF7F7FF00F030FC01F07BFD03B4C0
:1001C000FFF7F2FF03BC00F009FE000010B5044683
:1001D0002146FE4801F07CFC00BF4021FB4801F0B5
:1001E000E5FC0128F9D1002010BD10B5F8480068E1
:1001F00010F1230F4ADDF6480068232846DAF54857
:100200000068642823DDF3480068B0F5FA6F1EDA51
:10021000FF20FFF7DBFFFE20FFF7D8FF0120FFF7ED
:10022000D5FF0020FFF7D2FF0020FFF7CFFF00200F
:10023000FFF7CCFF0C20FFF7C9FF0020FFF7C6FF38
:100240000020FFF7C3FF0020FFF7C0FF54E2FF20AC
:10025000FFF7BCFFFE20FFF7B9FF0120FFF7B6FF55
:100260000020FFF7B3FF0020FFF7B0FF0020FFF7EB
:10027000ADFF0020FFF7AAFF0020FFF7A7FF002037
:10028000FFF7A4FF0020FFF7A1FF35E2D048006888
:1002900023284ADDCE4800684B2846DACD4800685E
:1002A000642823DDCB480068B0F5FA6F1EDAFF2022
:1002B000FFF78CFFFE20FFF789FF0120FFF786FF85
:1002C0000020FFF783FF0C20FFF780FF0020FFF7DF
:1002D0007DFF0C20FFF77AFF0020FFF777FF00205B
:1002E000FFF774FF0020FFF771FF05E2FF20FFF723
:1002F0006DFFFE20FFF76AFF0120FFF767FF002078
:10030000FFF764FF0020FFF761FF0020FFF75EFFAB
:100310000020FFF75BFF0020FFF758FF0020FFF7EA
:1003200055FF0020FFF752FFE6E1A94800684B287F
:100330004ADDA74800686E2846DAA64800686428A7
:1003400023DDA4480068B0F5FA6F1EDAFF20FFF73E
:100350003DFFFE20FFF73AFF0120FFF737FF0020A7
:10036000FFF734FF0C20FFF731FF0020FFF72EFFCF
:100370000020FFF72BFF0020FFF728FF0020FFF7EA
:1003800025FF0020FFF722FFB6E1FF20FFF71EFF49
:10039000FE20FFF71BFF0120FFF718FF0020FFF7EB
:1003A00015FF0020FFF712FF0020FFF70FFF0020CE
:1003B000FFF70CFF0020FFF709FF0020FFF706FF03
:1003C0000020FFF703FF97E1814800686E284ADDAF
:1003D0007F480068872846DA7E480068642823DD65
:1003E0007C480068B0F5FA6F1EDAFF20FFF7EEFEDA
:1003F000FE20FFF7EBFE0120FFF7E8FE0020FFF7ED
:10040000E5FE0C20FFF7E2FE0020FFF7DFFE0C20E8
:10041000FFF7DCFE0020FFF7D9FE0020FFF7D6FE35
:100420000220FFF7D3FE67E1FF20FFF7CFFEFE209B
:10043000FFF7CCFE0120FFF7C9FE0020FFF7C6FE44
:100440000020FFF7C3FE0020FFF7C0FE0020FFF7EB
:10045000BDFE0020FFF7BAFE0020FFF7B7FE002028
:10046000FFF7B4FE48E15A48006810F1230F4BDA59
:100470005748006810F14B0F46DD56480068642865
:1004800023DD54480068B0F5FA6F1EDAFF20FFF74D
:100490009DFEFE20FFF79AFE0120FFF797FE002049
:1004A000FFF794FE0C20FFF791FE0020FFF78EFE71
:1004B0000C20FFF78BFE0020FFF788FE0020FFF7DF
:1004C00085FE0420FFF782FE16E1FF20FFF77EFE87
:1004D000FE20FFF77BFE0120FFF778FE0020FFF7EC
:1004E00075FE0020FFF772FE0020FFF76FFE002070
:1004F000FFF76CFE0020FFF769FE0020FFF766FEA5
:100500000020FFF763FEF7E03148006810F16E0F3E
:100510004BDD2F48006810F14B0F46DA2D4800687C
:10052000642823DD2B480068B0F5FA6F1EDAFF203F
:10053000FFF74CFEFE20FFF749FE0120FFF746FEC5
:100540000020FFF743FE0C20FFF740FE0020FFF7DE
:100550003DFE0020FFF73AFE0020FFF737FE0020A7
:10056000FFF734FE0420FFF731FEC5E0FF20FFF760
:100570002DFEFE20FFF72AFE0120FFF727FE0020B8
:10058000FFF724FE0020FFF721FE0020FFF71EFEEC
:100590000020FFF71BFE0020FFF718FE0020FFF7EA
:1005A00015FE0020FFF712FEA6E00948006810F1D2
:1005B000870F52DD0648006810F16E0F4DDA0548CE
:1005C000006864282ADD0348006805E0003801401F
:1005D0003000002034000020B0F5FA6F1EDAFF2052
:1005E000FFF7F4FDFE20FFF7F1FD0120FFF7EEFD20
:1005F0000020FFF7EBFD0C20FFF7E8FD0020FFF7E0
:10060000E5FD0C20FFF7E2FD0020FFF7DFFD0020F5
:10061000FFF7DCFD0620FFF7D9FD6DE0FF20FFF7B7
:10062000D5FDFE20FFF7D2FD0120FFF7CFFD002012
:10063000FFF7CCFD0020FFF7C9FD0020FFF7C6FD46
:100640000020FFF7C3FD0020FFF7C0FD0020FFF7EB
:10065000BDFD0020FFF7BAFD4EE0F748006810F13D
:10066000780F03DBF4480068782845DDF34800681C
:10067000642823DDF1480068B0F5FA6F1EDAFF2028
:10068000FFF7A4FDFE20FFF7A1FD0120FFF79EFD6F
:100690000020FFF79BFD0020FFF798FD0020FFF7EB
:1006A00095FD0C20FFF792FD0020FFF78FFD002045
:1006B000FFF78CFD0220FFF789FD1DE0FF20FFF70B
:1006C00085FDFE20FFF782FD0020FFF77FFD002063
:1006D000FFF77CFD0020FFF779FD0020FFF776FD96
:1006E0000020FFF773FD0020FFF770FD0020FFF7EB
:1006F0006DFD0020FFF76AFD10BDD148D1490968A2
:10070000415CD14A1268805C01EB0020CB49086053
:10071000CB48CE490968405CC949CD4A1268895C1A
:10072000401AC54908607047C11CC74A1160811C46
:10073000C44A1160411DC64A1160011DC34A1160BF
:10074000C14909680A2904DBBF4909680A39BE4A58
:100750001160BC4909680A2904DBBA4909680A39E9
:10076000B84A1160B94909680A2904DBB749096820
:100770000A39B64A1160B64909680A2904DBB44946
:1007800009680A39B24A116070472DE9F04F87B005
:100790004FF0000B0026002700240025A046A146AC
:1007A000A24600BF57E00020AA4908700A2000F0C6
:1007B00018FC0020A8490860A849086045E0A04846
:1007C000A5490968405CD6283AD19D49A2480068ED
:1007D000401C085C6D2833D10120A14908609E4867
:1007E0000078A049087008460078FFF79DFF9448FC
:1007F00094490968415C944A1268805C01EB0020CE
:100800008E4908608E4891490968405C8C49904A3D
:100810001268895C401A88490860884800689249D3
:100820008E4A126841F82200834800688F498B4A3B
:10083000126841F8220089480068401C8749086016
:1008400085480068401C84490860834800680A287D
:10085000B5DB0BF1010BBBF1010FA4DB002610E0AF
:10086000814850F826008249096808448049086098
:100870007E4850F826007F49096808447D49086091
:10088000761C764800688642EADB7948006873493E
:10089000096890FBF1F078490860764800686F4974
:1008A000096890FBF1F075490860002438E072484F
:1008B000006801F019FA4FF03332714BCDE90001B5
:1008C00001F066FACDE90401674951F8240001F00E
:1008D0000BFACDE90201DDE9042301F057FB17D93A
:1008E0006548006801F000FA664A674BCDE90001EF
:1008F00001F04EFACDE904015B4951F8240001F002
:10090000F3F9CDE90201DDE9042301F005FA06D887
:10091000554850F824005D4941F827007F1C641CAD
:100920004E4800688442C2DB002539E05348006825
:1009300001F0DAF94FF03332514BCDE9000101F00B
:1009400027FACDE90401494951F8250001F0CCF915
:10095000CDE90201DDE9042301F018FB17D947486E
:10096000006801F0C1F9474A474BCDE9000101F0A9
:100970000FFACDE904013D4951F8250001F0B4F921
:10098000CDE90201DDE9042301F0C6F907D83748B3
:1009900050F825003E4941F8280008F101086D1C77
:1009A0002E4800688542C1DB4FF0000909E0374856
:1009B00050F829002E490968081A2D49086009F1E4
:1009C0000109B945F3DB25480068C01B28490968BF
:1009D00091FBF0F028490860002025490860824614
:1009E00009E02B4850F82A0022490968081A2149D1
:1009F00008600AF1010AC245F3DB18480068A0EB61
:100A000008001C49096891FBF0F01C4908600020AF
:100A10001849086007B0BDE8F08F00F0A5FA4FF460
:100A2000A06000F02BFB4FF4E13000F0E6F900F09D
:100A300043F900F067F93BE030000020340000206B
:100A4000700000201400002010000020280000206A
:100A50002C00002001000020080000200C000020D5
:100A600004000020000000207C0000201C1000205A
:100A700018000020200000201C000020240000207E
:100A80003333F33F9A9999999999E93F4C0800209B
:100A9000EC170020FFF779FE06480068012807D10F
:100AA00005480078FFF740FEFFF727FEFFF79DFBA4
:100AB000F0E700000400002000000020704700BFA5
:100AC000FEE700BFFEE700BFFEE700BFFEE770479E
:100AD00070477047704700000CB5002001900090EF
:100AE0006C48006840F480306A49086000BF69487B
:100AF000006800F4003000900198401C01900098BC
:100B000018B90198B0F5A06FF1D16248006800F4FF
:100B1000003010B10120009001E00020009000980A
:100B2000012843D15C48006840F010005A49086031
:100B30000846006820F0030008600846006840F09E
:100B400002000860534840685249486008464068BF
:100B500048600846406840F4806048600846406845
:100B600020F47C1048600846406840F4E810486073
:100B70000846006840F08070086000BF4548006883
:100B800000F000700028F9D04248406820F00300CF
:100B9000404948600846406840F00200486000BF95
:100BA0003C48406800F00C000828F9D10CBD10B595
:100BB000FFF792FF10BD10B53648006840F0010005
:100BC0003449086008464068344908403149486063
:100BD00008460068324908402E4908600846006807
:100BE00020F4802008600846406820F4FE00486039
:100BF0004FF41F008860FFF7DAFF4FF000602949CB
:100C0000086010BD10B5002100200022214B5B6858
:100C100003F00C0121B1042906D0082928D107E0EE
:100C2000214B224C236027E01F4B204C236023E004
:100C3000184B5B6803F47010164B5B6803F480324A
:100C4000022303EB904022B9194B4343174C236016
:100C50000DE0104B5B6803F4003323B1144B4343A6
:100C6000124C236003E0104B4343104C236003E01D
:100C70000D4B0E4C236000BF00BF064B5B68C3F3F7
:100C800003130C4CE15C094B1B68CB40074C236001
:100C900010BD000000100240002002400000FFF8DC
:100CA000FFFFF6FE08ED00E000127A004000002091
:100CB00000093D004400002008B50121482000F053
:100CC00067FD2020ADF8000010208DF80300032000
:100CD0008DF802006946094800F09EFA2021074875
:100CE00000F047FB2020ADF800006946044800F002
:100CF00093FA2021024800F03CFB08BD000C0140A3
:100D00000018014008B50121442000F041FD1820E1
:100D1000ADF8000048208DF8030069462C4800F02B
:100D20007BFA0120ADF8000028208DF80300694609
:100D3000284800F071FA08BD10B5044614B101202E
:100D4000254908702448007858B31021204800F045
:100D5000F6FA50B108211E4800F0F1FA28B101213D
:100D60001C4800F0ECFA01281BD10A2000F039F9E8
:100D70000020194908701021154800F0E0FA08B960
:100D8000012010BD0821124800F0D9FA08B902204C
:100D9000F7E701210F4800F0D2FA012815D103200E
:100DA000EFE710210A4800F0CAFA01280DD1082106
:100DB000074800F0C4FA012807D10121054800F0D6
:100DC000BEFA10B90120044908700020D9E70000DC
:100DD000001801400008014054000020014600BFF7
:100DE000704700BF5C4A128802F04002002AF9D026
:100DF000C2B2594B1B1D1A80704710B586B004460D
:100E0000012144F2040000F0C3FC4FF40070ADF87F
:100E1000040002208DF8060018208DF8070001A9B3
:100E20004E4800F0F9F904208DF807000002ADF8F3
:100E3000040001A9494800F0EFF925208DF80000D1
:100E400003208DF801008DF8020001208DF80300C9
:100E5000684600F018F90121880300F099FC02941B
:100E60000020ADF80C00ADF80E00ADF81000ADF8A4
:100E700014000C20ADF8120002A9374800F02FFD35
:100E8000012240F22551344800F0C1FD01213248D1
:100E900000F0B1FD4021304800F095FE06B010BDD5
:100EA00010B5044621462C4800F012FE00BF402138
:100EB000294800F07BFE0028F9D010BD10B504468B
:100EC0000BE014F8011B244800F002FE00BF402193
:100ED000214800F06BFE0028F9D020780028F0D1DE
:100EE00010BD70B505460E4600BF40211A4800F0FF
:100EF0005DFE0028F9D000240CE0295D164800F0C2
:100F0000E7FD00BF4021144800F050FE0028F9D052
:100F1000601CC4B2B442F0DB70BD10B540F2255184
:100F20000D4800F059FEA8B120210B4800F04BFEFF
:100F3000094800F0D1FD0A490A4A12788854094844
:100F40000078401C0749087008460078C82801DB73
:100F5000C820087010BD00000038014000080140A2
:100F6000700000200100002010B56FF0040000F0B8
:100F7000D4F82E4800682E49B0FBF1F02D490870D6
:100F80000846007800EB4001C1EBC0104FF6FF713E
:100F900001EAC0002849088010BD0146254A1278A0
:100FA0004A434FF0E0235A6100229A611A461269BF
:100FB00042F001021A6100BF4FF0E022106900F018
:100FC00001021AB100F48032002AF5D04FF0E0227D
:100FD000126922F001024FF0E0231A6100229A61A7
:100FE00070470146144A12884A434FF0E0235A6181
:100FF00000229A611A46126942F001021A6100BF8A
:101000004FF0E022106900F001021AB100F48032C2
:10101000002AF5D04FF0E022126922F001024FF0D1
:10102000E0231A6100229A6170470000400000200E
:1010300000127A005600002058000020094880471E
:1010400009480047FEE7FEE7FEE7FEE7FEE7FEE7AA
:10105000FEE7FEE7FEE7FEE704480549054A064BC2
:1010600070470000B70B0008310100082020002065
:101070002026002020220020202200203149014388
:10108000314A1160704770B5002100230F22C478E7
:1010900004B32D4C246804F4E064C4F5E064210A30
:1010A000C1F10403CA40447804FA03F1847814407F
:1010B00021430901254C0678A155047804F01F0549
:1010C0000124AC4005786D11AD0005F1E025C5F8AF
:1010D000004109E0047804F01F050124AC401C4DD8
:1010E0000678761145F8264070BD1A4A0A40024338
:1010F000154B1B1F1A60704739B1134A121D126835
:101100000243114B1B1D1A6006E00F4A121D1268A4
:1011100082430D4B1B1D1A607047042808D14FF005
:10112000E021096941F004014FF0E022116107E07C
:101130004FF0E021096921F004014FF0E022116134
:10114000704700000000FA050CED00E000E400E04C
:1011500080E100E080FFFF1F10B50446CC488442C8
:1011600008D10121042000F02DFB0021042000F013
:1011700029FB46E0C748844208D10121082000F03D
:1011800021FB0021082000F01DFB3AE0C248844208
:1011900008D10121102000F015FB0021102000F0E3
:1011A00011FB2EE0BD48844208D10121202000F02F
:1011B00009FB0021202000F005FB22E0B848844212
:1011C00008D10121402000F0FDFA0021402000F06C
:1011D000F9FA16E0B348844208D10121802000F0DA
:1011E000F1FA0021802000F0EDFA0AE0AE488442D6
:1011F00007D10121801500F0E5FA0021A01500F0CB
:10120000E1FA10BD10B50121084600F0DBFA00211B
:10121000012000F0D7FA10BD2DE9F041024600256B
:101220000026002000230024002791F803C00CF0C2
:101230000F0591F803C00CF0100CBCF1000F03D0A7
:1012400091F802C04CEA050591F800C0BCF1000F0E
:1012500031D0146800202BE04FF0010C0CFA00F3A1
:10126000B1F800C00CEA03069E4220D183004FF083
:101270000F0C0CFA03F7BC4305FA03FC4CEA040418
:1012800091F803C0BCF1280F06D14FF0010C0CFA05
:1012900000FCC2F814C00AE091F803C0BCF1480F8A
:1012A00005D14FF0010C0CFA00FCC2F810C0401C34
:1012B0000828D1D31460B1F800C0BCF1FF0F34DDB1
:1012C000546800202EE000F1080C4FF0010808FAE5
:1012D0000CF3B1F800C00CEA03069E4221D1830052
:1012E0004FF00F0C0CFA03F7BC4305FA03FC4CEA71
:1012F000040491F803C0BCF1280F05D100F1080CDB
:1013000008FA0CF8C2F8148091F803C0BCF1480F39
:1013100007D100F1080C4FF0010808FA0CF8C2F8E8
:101320001080401C0828CED35460BDE8F0814FF6F1
:10133000FF710180022181700421C1707047024653
:10134000002093680B400BB1012000E000207047A3
:101350000146886880B2704702460020D3680B407F
:101360000BB1012000E0002070470146C86880B240
:10137000704701617047416170470AB1016100E047
:1013800041617047C16070474FF480320A43826107
:101390008161826182698269704702460020434B05
:1013A00018684FF68073184040EA021008433F4B1C
:1013B000186070473E49C8617047F0B50A4600237F
:1013C00000240021002500F00046B6F1004F02D1B4
:1013D000364EF16901E0354E7168C0F3034583B2C2
:1013E00000F44016B6F5401F08D121F070612F4E71
:1013F000766826F070662D4F7E6012E000F480164D
:10140000B6F5801F06D1032606FA05F4A14341F084
:10141000706106E0460D360103FA06F6B14341F06D
:10142000706122B1460D360103FA06F6314300F031
:101430000046B6F1004F02D11C4EF16101E01B4E97
:101440007160F0BD30B500228B071C0F0F2303FA2B
:1014500004F2164B08338C1053F824309343134C8A
:1014600008348D1044F8253023468C1053F824306E
:101470008C07240F00FA04F423430C4C08348D101D
:1014800044F8253030BD0A49DC310860704700005F
:1014900000080140000C0140001001400014014010
:1014A00000180140001C01400020014000000140E4
:1014B00000002042DF48006840F00100DD4908607C
:1014C00008464068DC490840DA4948600846006838
:1014D000DA490840D74908600846006820F48020AF
:1014E00008600846406820F4FE0048604FF41F0082
:1014F00088607047CF49096821F48031CD4A116076
:101500001146096821F480211160B0F5803F03D0B5
:10151000B0F5802F0ED106E0C649096841F480314C
:10152000C44A116007E0C349096841F4A021C14AD7
:10153000116000E000BF00BF704710B501460022F7
:10154000002300204A11012A02D1BA4C236806E088
:10155000022A02D1B74C236A01E0B64C636A01F05B
:101560001F02012494401C400CB1012000E0002027
:1015700010BD38B5002000900024002500BF3120A8
:10158000FFF7DBFF05460098401C00900098B0F57F
:10159000A06F01D0002DF2D03120FFF7CEFF08B1AF
:1015A000012400E00024204638BD01460020A14A65
:1015B000106820F0F80040EAC10010607047A049B0
:1015C00008607047024600209A4B586820F47C104F
:1015D00042EA01031843974B5860704798490866E0
:1015E000704701460020934A506820F003000843EA
:1015F000506070478F48406800F00C00704701460B
:1016000000208C4A506820F0F0000843506070477A
:1016100001460020874A506820F4E060084350608B
:10162000704701460020834A506820F4605040EA29
:10163000C1005060704729B17E4A527A02437D4B07
:101640005A7204E07B4A527A82437A4B5A7270474C
:101650007B49D8310860704701460020754A5068C0
:1016600020F440400843506070470021714A203206
:101670001170704A82F82010012802D004280AD183
:1016800004E001216B4A2032117005E00521694A0E
:101690002032117000E000BF00BF70476949086048
:1016A00070476449096A0143624A1162704765499B
:1016B00044390860704730B500210022002400231F
:1016C0005C4D6D6805F00C0121B1042905D0082995
:1016D00023D105E05C4D056022E05B4D05601FE015
:1016E000544D6D6805F47012524D6D6805F48034E8
:1016F000022505EB92421CB9544D554305600BE0A1
:101700004C4D6D6805F400351DB1504D55430560D5
:1017100002E04D4D5543056002E04B4D056000BFB2
:1017200000BF444D6D6805F0F0010909484D6B5C40
:101730000568DD4045603F4D6D6805F4E061090ACC
:10174000434D6B5C4568DD4085603A4D6D6805F43E
:101750006051C90A3E4D6B5C4568DD40C560354D42
:101760006D6805F44041890B3A4D6B5CC568B5FB6B
:10177000F3F5056130BD29B12E4A526902432D4B64
:101780005A6104E02B4A526982432A4B5A617047DE
:1017900029B1284A92690243264B9A6104E0254AFE
:1017A00092698243234B9A61704729B1214AD269D9
:1017B0000243204BDA6104E01E4AD26982431D4B8A
:1017C000DA61704729B11B4AD2680243194BDA60CB
:1017D00004E0184AD2688243164BDA60704729B198
:1017E000144A12690243134B1A6104E0114A126948
:1017F0008243104B1A6170471249403908607047A4
:101800000F49C86470470B49C87170470948406A5E
:1018100040F0807007494862704701460020054A41
:1018200092680A400AB1012000E000207047014997
:1018300088727047001002400000FFF8FFFFF6FEBC
:10184000000042428004424200127A0000093D003A
:101850005A0000206A00002010B50446FB4884426C
:1018600009D101218803FFF7ADFF00214FF480402B
:10187000FFF7A8FF32E0F648844209D1012148046D
:10188000FFF7ADFF00214FF40030FFF7A8FF25E080
:10189000F048844209D101218804FFF7A0FF00210C
:1018A0004FF48020FFF79BFF18E0EB48844209D1FA
:1018B0000121C804FFF793FF00214FF40020FFF738
:1018C0008EFF0BE0E548844208D101210805FFF7AF
:1018D00086FF00214FF48010FFF781FF10BD2DE936
:1018E000F04786B005460E460024A24600BFA1463A
:1018F0000027B08900B100BF2F462C8A4CF6FF703C
:101900000440F08804432C82AC894EF6F310044066
:10191000B08831890843718908430443AC81AC8A9B
:101920004FF6FF400440B0890443AC8201A8FFF7A2
:10193000C2FEC648874202D1DDF810A001E0DDF802
:101940000CA0A88900F4004040B10AEBCA0000EBEB
:101950000A1031684900B0FBF1F807E00AEBCA0051
:1019600000EB0A1031688900B0FBF1F86420B8FB85
:10197000F0F004012009642101FB1089A88900F41A
:10198000004040B1322000EBC900B0FBF1F000F0A4
:101990000700044308E0322000EB09106421B0FB8B
:1019A000F1F000F00F0004432C8106B0BDE8F08791
:1019B0004FF41651016000218180C18001810C210A
:1019C000418100218181704710B502460020108AB4
:1019D0004FF2FF0318400B884C8823438C88234325
:1019E000CC8823431843108210BD00210180418020
:1019F0008180C180704721B1828942F40052828186
:101A000004E082894DF6FF731A4082817047F0B579
:101A10000346002400260025002040F66A17B9423C
:101A200000D100BF1846C1F3421401F01F06012780
:101A300007FA06F5012C01D10C3004E0022C01D18B
:101A4000103000E014301AB107682F43076002E03D
:101A50000768AF430760F0BD1AB1838A0B438382E6
:101A600002E0838A8B4383827047028A4FF6F073C9
:101A70001A400282028A0A430282704782894FF228
:101A8000FF731A40828182890A438281704721B1A3
:101A9000828942F00202828104E082894FF6FD735E
:101AA0001A4082817047028A4FF6DF731A40028221
:101AB000028A0A430282704721B1028A42F48042BC
:101AC000028204E0028A4BF6FF731A4002827047DA
:101AD000C1F308028280704701468888C0F308007D
:101AE0007047818941F0010181817047028BD2B238
:101AF0000283028B42EA012202837047028B02F4C6
:101B00007F420283028B0A430283704721B1828A9B
:101B100042F02002828204E0828A4FF6DF731A408C
:101B20008282704721B1828A42F01002828204E0F0
:101B3000828A4FF6EF731A408282704721B1828AFF
:101B400042F00802828204E0828A4FF6F7731A405C
:101B50008282704721B1828942F40042828103E08F
:101B60008289C2F30E028281704721B1828A42F4D7
:101B70000062828204E0828A4FF2FF731A408282FE
:101B80007047828A4FF6FB731A408282828A0A4328
:101B90008282704721B1828A42F00202828204E08E
:101BA000828A4FF6FD731A408282704702460020F7
:101BB000B1F5007F00D100BF13880B400BB10120AD
:101BC00000E00020704701F40072B2F5007F00D100
:101BD00000BFCA430280704770B50246002400234C
:101BE0000025002040F66A16B14200D100BFC1F3C3
:101BF000421501F01F03012606FA03F3012D02D15D
:101C00009689334006E0022D02D1168A334001E066
:101C1000968A33400C12012606FA04F416883440E2
:101C200013B10CB1012000E0002070BD10B50022FE
:101C3000002340F66A14A14200D100BF0A12012419
:101C40009440A3B2DC43048010BD00000038014082
:101C50000044004000480040004C0040005000405C
:101C600070477047704770477047754600F02CF812
:101C7000AE4605006946534620F00700854618B079
:101C800020B5FFF7E9F9BDE820404FF000064FF01E
:101C900000074FF000084FF0000B21F00701AC46A1
:101CA000ACE8C009ACE8C009ACE8C009ACE8C009C0
:101CB0008D46704710B50446AFF300802046BDE85E
:101CC0001040FEF77CBA000000487047BC1F00209F
:101CD000491058BFC1F140415B1058BFC3F14043A8
:101CE0008B42EFF30080704710F0004248BF404243
:101CF000B0FA80F310FA03F10AD0C3F11D0303F523
:101D000080634FEA415002EB035202EBD12170474E
:101D10004FF000007047000051EA030C17D41CF587
:101D2000801F58BFBCF5801F00F10680994218BF84
:101D3000704708BF9042704707D711F5801F58BF02
:101D400013F5801F19D499427047894270471CF5DA
:101D5000801F08D5BCF5801FF7D58B4218BF704790
:101D600008BF824270474FF4001C1CEB410F38BF84
:101D70001CEB430F01D28B42704770B500F0B2F8F4
:101D8000922449004FF000514FF08053FFF7A0BF5D
:101D9000DFF848C170B51CEA111E1EBF1CEA1315FE
:101DA0009EEA0C0F95EA0C0F00F06F8081EA0304A5
:101DB00023EA4C134EEAD47E21EA4C1141F48011FF
:101DC00043F48013AE44A1FB024CA0FB0365AEF1CB
:101DD0007F7E361955EB0C05A1FB034C4CF100033B
:101DE000A0FB021C16EB0C06654153F100030942EF
:101DF00018BF46F0010613F4007F0BD14FEA033100
:101E00004FEA0530340341EA155140EA16506FF0AD
:101E100003020AE04FEAC3214FEAC520F40241EA77
:101E2000555140EA56506FF0020202EB2E4201EB90
:101E3000025585EACE710AD05FEA440C18BF24F03F
:101E4000004450F1000041F1000120EAD47040F25A
:101E5000FE7C624500D270BDA84214BF4FF08044A2
:101E60004FF04044002E08BF0024BEF1806FA8BF91
:101E7000A1F1C041BDE8704080F282804FF00000C7
:101E800001F1C04101F0004170479EEA0C0F0CEADD
:101E9000131518BF95EA0C0F06D04FF0000081EA29
:101EA000030E0EF0004170BD00F01CF88900013EE9
:101EB00000F007B800F009B84FEA430C5FEA5C5C39
:101EC00008D081EA030100F05BB84FEA410C5FEAF9
:101ED0005C5CF6D14FF00000014970470000FF073D
:101EE0000000F87F0EF1020E2EF0030E5EF8046B78
:101EF000364205D4012A43EB030515F5001F12D81D
:101F0000012841EB010C1CF5001F0CD80ED14FEA43
:101F1000D17C15F5001F0CEB4C0C0CF1020C08BF2A
:101F20004CEBD37C04E04FF0080C01E04FEAD37C8B
:101F30000CEB4C0526FA05F606F00706B6F1040C84
:101F400006D20EEB860CBDE870404CF0010C6047E9
:101F5000DFE80CF0090B02024FF000414FF00000E7
:101F6000A1F5002170BD19461046012851EB01046E
:101F700018BFD4F5001484BF002001F0004170BDEB
:101F80000808A0F500114FEA3101704753EA010C2F
:101F900017D41CF5801F58BFBCF5801F00F10680C8
:101FA0008B4218BF704708BF8242704707D713F5AE
:101FB000801F58BF11F5801F19D48B4270479B4278
:101FC00070471CF5801F08D5BCF5801FF7D59942D6
:101FD00018BF704708BF904270474FF4001C1CEBBD
:101FE000430F38BF1CEB410F01D2994270470FB429
:101FF0000CBC03BCFFF7C1BE182000080000002085
:10200000700000006C0100088820000870000020AB
:10201000B02500008801000800000000000000005A
:1020200000000000000000000000000000000000B0
:1020300000000000000000000000000000000000A0
:102040000000000000000000000000000000000090
:10205000000000000000000000A24A040000000090
:102060000000000001020304060708090100000047
:10207000000000000000010203040102030406073F
:08208000080902040608000033
:0400000508000131BD
:00000001FF
